:0300CA007512FFAD
:0E00D60090E600E0FA74E75A90E600F5F07448
:0E00E4001045F0F090E601E04440F075B300E6
:0E00F20075B50090E601E0FA54FCF090E6C20D
:0E010000740FF090E6C3740FF090E61074A038
:0E010E00F090E61174A0F000000090E612746C
:0E011C00E2F000000090E6137420F0000000F6
:0E012A0090E614746AF000000090E615746010
:0E013800F000000090E6187404F00000009043
:0E014600E61A7405F000000043AF0190E6F3E6
:050154007420F07A00A8
:05015900BA2002801233
:0E015E008A037CE4EA900E8793FD8B828C83EB
:04016C00F00A80E92C
:0901700090E60174C2F0D20122F4
:0D01790090E6A1E0FA20E10590E68DE4F0AB
:0C01860090E685E0FAC39513FA24F550CA
:0D0192001190E6A2E0FA20E109120DE690BE
:05019F00E685E0F51308
:0101A4002238
:0201A500D32263
:0201A700D32261
:0201A900D3225F
:0801AB0090E6BAE0F50ED32244
:0C01B30090E740E50EF090E68AE4F09042
:0701BF00E68B7401F0D3226E
:0801C60090E6BAE0F50FD32228
:0C01CE0090E740E50FF090E68AE4F09026
:0701DA00E68B7401F0D32253
:0201E100D32227
:0201E300D32225
:0201E500D32223
:0A01E70090E6B9E0FABAD0028005F4
:0501F100BAD1218012CB
:0E01F60090E604E0FA43028000000090E60468
:04020400EAF0800F8D
:0D02080090E604E0FA547FF0000000800250
:02021500D322F2
:02021700C32200
:0C021900C0E0C082C083D2005391EF907F
:0C022500E65D7401F0D083D082D0E0329E
:0E023100C0E0C082C0835391EF90E65D74047C
:08023F00F0D083D082D0E03240
:0E024700C0E0C082C0835391EF90E65D740268
:08025500F0D083D082D0E0322A
:0C025D00C0E0C082C083C002C00385273F
:03026900298528BC
:04026C002AAA29ABE6
:0A0270002A8A828B83A37402F085B2
:03027A00252B85AC
:03027D00262CAA82
:0A0280002BAB2C8A828B83A374073A
:0E028A00F05391EF90E65D7410F0D003D002B7
:07029800D083D082D0E032D8
:0C029F00C0E0C082C083D2035391EF90F6
:0C02AB00E65D7408F0D083D082D0E03211
:0E02B700C0E0C082C083C002C00390E680E0B9
:0802C500FA30E72485252985A4
:0302CD00262AAA34
:0A02D00029AB2A8A828B83A37402F3
:0502DA00F085272B85D3
:0302DF00282CAA1E
:0A02E2002BAB2C8A828B83A37407D8
:0102EC00F021
:0E02ED005391EF90E65D7420F0D003D002D064
:0602FB0083D082D0E03246
:0103010032C9
:0103020032C8
:0103030032C7
:0103040032C6
:0103050032C5
:0103060032C4
:0103070032C3
:0103080032C2
:0103090032C1
:01030A0032C0
:01030B0032BF
:01030C0032BE
:01030D0032BD
:01030E0032BC
:01030F0032BB
:0103100032BA
:0103110032B9
:0103120032B8
:0103130032B7
:0103140032B6
:0103150032B5
:0103160032B4
:0103170032B3
:0103180032B2
:0103190032B1
:01031A0032B0
:01031B0032AF
:01031C0032AE
:01031D0032AD
:01031E0032AC
:01031F0032AB
:0103200032AA
:0103210032A9
:0103220032A8
:0103230032A7
:0103240032A6
:0E0E870001112B1C3C2D000001030101031181
:0E0E950000000F0F0F0F0F0F0F0000090009D4
:040EA300000000004B
:040000000200713257
:01000B0032C2
:0100130032BA
:01001B0032B2
:0100230032AA
:01002B0032A2
:030033000208E3DD
:0300D300020036F2
:0500360012032580FE0D
:05032500C203C201C289
:04032A0002C20012F9
:04032E0000D675215F
:0303320000752231
:0303350018752315
:0303380012752417
:03033B001875250D
:03033E001C752605
:0303410018752705
:03034400467528D3
:0303470018752DF9
:03034A007E752E8F
:04034D00197A0074A5
:0903510018FB54E070030204469D
:04035A007533007582
:03035E0034187CD4
:04036100AC7D197ED8
:0A036500007F18ECC39EFCED9FFD25
:0A036F0074022CFCE43DFD8C2F8D80
:05037900307531007534
:0A037E003200780079007A007B005D
:09038800C3E8952FE99530EA95D0
:0A03910031EB9532501B748028F503
:0E039B0082E439F58374CDF008B800E109B9A9
:0903A90000DD0ABA00D90B80D670
:0803B2007A007B00780079005D
:0903BA00C3EA952FEB9530E8959C
:0A03C30031E99532502974802AFCBC
:0A03CD00E43BFDAE33AF34EA2EF539
:0E03D70082EB3FF583E0FE8C828D83F00ABA44
:0D03E50000D30BBB00CF08B800CB0980C8C7
:0703F200752180E4F5227A79
:0A03F900007B18EA2480FAEB34FFC1
:08040300FBE523C39AF523E594
:05040B00249BF524E52F
:0604100029C39AF529E55D
:050416002A9BF52AE518
:06041B002BC39AF52BE54E
:050421002C9BF52CE509
:0604260025C39AF525E54F
:05042C00269BF526E50A
:0604310027C39AF527E540
:05043700289BF528E5FB
:06043C002DC39AF52DE529
:040442002E9BF52ECA
:0D044600D2E843D82090E668E04409F09029
:0E045300E65CE0443DF0D2AF90E680E0FA2097
:07046100E105D2041208E7D7
:0C04680090E680E0FA54F7F0538EF8C2E2
:010474000384
:070475003000051204BAC2B9
:01047C00007F
:09047D003003351201A55030C214
:010486000372
:0C04870012099A20012090E682E0FA3071
:0A049300E70890E682E0FA20E1EAB3
:0E049D0090E682E0FA30E60890E682E0FA206F
:0204AB00E0DA95
:0804AD001209641201A7E433F7
:0504B50012017980BB7B
:0C04BA0090E6B8E0FA546060030208D33A
:0C04C60090E6B9E0FA24F450030208C4E8
:0704D200EA2A2A9004D97305
:0704D9000206A302074D0219
:0604E00008C402082F020F
:0604E60008C40208C40274
:0604EC0004FD0208C40239
:0604F200069B02069302C6
:0504F800068302068BE3
:0804FD001201A940030208DB13
:0A05050090E6BBE0FABA0102802381
:05050F00BA0202804267
:05051400BA0302806142
:05051900BA0602802675
:05051E00BA0702804550
:06052300BA21030205DB12
:06052900BA22030205F2F4
:03052F0002067849
:0A05320090E6B3E522F0AA217B0059
:08053C0090E6B4EAF00208DBCE
:0A05440090E6B3E524F0AA237B0043
:08054E0090E6B4EAF00208DBBC
:0A05560090E6B3E52AF0AA297B0025
:0805600090E6B4EAF00208DBAA
:0A05680090E6B3E52CF0AA2B7B000F
:0805720090E6B4EAF00208DB98
:0C057A0090E6BAE0FA600ABA0102801CA8
:05058600BA0247802EBF
:0A058B007A7E7B1990E6B3EBF07A5C
:0A0595007E7B197B0090E6B4EAF0CB
:03059F000208DB74
:0A05A2007A827B1990E6B3EBF07A41
:0A05AC00827B197B0090E6B4EAF0B0
:0305B6000208DB5D
:0A05B9007A887B1990E6B3EBF07A24
:0A05C300887B197B0090E6B4EAF093
:0305CD000208DB46
:0B05D00090E6A0E0FA4401F00208DB16
:0A05DB007A2E7B1890E6B3EBF07A5D
:0A05E5002E7B187B0090E6B4EAF0CC
:0305EF000208DB24
:0505F2007A7E7B197CFC
:0705F700707D18EAC39CF5BA
:0605FE0035EB9DF5367C93
:06060400707D188D9A7C48
:07060A00707D187D008C9B40
:07061100E5354536700302D8
:0206180008DBFD
:0A061A00C3E5359440E53694005026
:0706240006AC35AD36800481
:04062B007C407D0092
:04062F007E007F00CA
:0E063300C3EE9CEF9D5019EE2440F8EF34E723
:0E064100F990E67BE0FA88828983F00EBE0015
:04064F00E30F80E055
:0E06530090E68AE4F000000090E68BECF000E8
:090661000000E535C39CF535E508
:04066A00369DF5368E
:0A066E0090E6A0E0FA30E19B80F670
:0B06780090E6A0E0FA4401F00208DB6D
:080683001201CEE4330208DB92
:08068B001201C6E4330208DB92
:080693001201ABE4330208DBA5
:08069B001201B3E4330208DB95
:0806A3001201E140030208DB33
:0A06AB0090E6B8E0FABA8002800D74
:0506B500BA8102802D56
:0506BA00BA8202803E3F
:0306BF00020742ED
:0A06C200A201E43325E0FAA202E4ED
:0E06CC0033FB420290E740EAF090E741E4F091
:0D06DA0090E68AF090E68B7402F00208DBD7
:0E06E70090E740E4F090E741F090E68AF09052
:0806F500E68B7402F00208DB41
:0E06FD0090E6BCE0FA53027E90E6BCE0FBC340
:0E070B0074809BE4334A900EA793FA3395E076
:0E071900FB74A12AFA74E63BFB8A828B83E014
:0E072700FA53020190E740EAF090E741E4F057
:0D07350090E68AF090E68B7402F00208DB7B
:0B07420090E6A0E0FA4401F00208DBA2
:08074D001201E340030208DB86
:0C07550090E6B8E0FA6008BA0202801BCF
:030761000208DBB0
:0B07640090E6BAE0FABA0105C20102FB
:02076F0008DBA5
:0B07710090E6A0E0FA4401F00208DB73
:0D077C0090E6BAE0FA600FBA800302080EA2
:06078900BA810302081909
:03078F0002082439
:0E07920090E6BCE0FA53027E90E6BCE0FBC3AA
:0E07A00074809BE4334A900EA793FA3395E0E1
:0E07AE00FB74A12AFA74E63BFB90E6BCE0FC6B
:0E07BC0053047E90E6BCE0FDC374809DE433E0
:0E07CA004C900EA793FC3395E0FD74A12CFC1F
:0E07D80074E63DFD8C828D83E0FC5304FE8AA6
:0E07E600828B83ECF090E6BCE05480C4235478
:0E07F4001FFA90E6BCE0FB740F5B90E6832AD0
:0C080200F090E683E0FA4420F00208DBEE
:0B080E0090E6A0E0FA54FEF00208DBC8
:0B08190090E6A2E0FA54FEF00208DBBB
:0B08240090E6A0E0FA4401F00208DBBF
:08082F001201E540030208DBA1
:0C08370090E6B8E0FA6008BA02028026E1
:030843000208DBCD
:0B08460090E6BAE0FABA0105D2010208
:0208510008DBC2
:0B08530090E6BAE0FABA02030208DBEC
:0B085E0090E6A0E0FA4401F00208DB85
:0E08690090E6BCE0FA53027E90E6BCE0FBC3D2
:0E08770074809BE4334A900EA793FA3395E009
:0E088500FB74A12AFA74E63BFB90E6BCE0FC93
:0E08930053047E90E6BCE0FDC374809DE43308
:0E08A1004C900EA793FC3395E0FD74A12CFC47
:0E08AF0074E63DFD8C828D83E0FC4304018ADB
:0708BD00828B83ECF0801731
:0E08C4001201E7501290E6A0E0FA4401F08025
:0108D200081D
:0808D30090E6A0E0FA4401F0F8
:0808DB0090E6A0E04480F02249
:0408E30053D8EF32C5
:0A0EA7000001020203030404050524
:0C08E70030040A90E680E0FA440AF08039
:0108F30008FC
:0808F40090E680E0FA4408F0F0
:0D08FC009005DC12091990E65D74FFF09084
:0E090900E65F74FFF05391EF90E680E054F744
:02091700F022CC
:0E091900AA82AB8390E600E0FC5418701174C3
:0E092700012AFCE43BFD8C02C313CA13CAFB79
:0209350080122E
:0E09370090E600E0FC530418BC1007EBCA2544
:04094500E0CA33FBD6
:090949008A048B051ABAFF011B98
:0E095200EC4D600DC002C0031209AED003D000
:030960000280E62C
:010963002271
:0E09640090E682E0FA30E00890E682E0FA20A9
:02097200E6108D
:0E09740090E682E0FA30E11D90E682E0FA3073
:02098200E71577
:0E09840090E680E04401F090001412091990F2
:07099200E680E0FA54FEF0DC
:01099900223B
:0E099A0090E682E044C0F090E681F0438701D1
:0609A80000000000002227
:0909AE007400F58690FDA57C059E
:0809B700A3E582458370F922DB
:03004300021A009E
:03005300021A008E
:091A000002021900020247000273
:081A090002310002029F0002FD
:081A1100025D000202B70002B1
:081A19000301000203020002B8
:081A21000303000203040002AC
:081A29000305000203060002A0
:081A3100030700020308000294
:081A390003090002030A000288
:081A4100030B00020302000286
:081A4900030C0002030D000272
:081A5100030E0002030F000266
:081A590003100002031100025A
:081A610003120002030200025F
:081A6900030200020302000267
:081A710003130002031400023C
:081A7900031500020316000230
:081A8100031700020318000224
:081A890003190002031A000218
:081A9100031B0002031C00020C
:081A9900031D0002031E000200
:081AA100031F000203200002F4
:081AA9000321000203220002E8
:071AB10003230002032400DF
:0E180000120100020000004047050510000024
:04180E0001020001D2
:0A1812000A060002000000040100B5
:09181C00090229000101038028E2
:09182500090400000203000000A8
:09182E00092110010001220E0144
:0718370007058103400005D5
:07183E00070501034000054E
:0118450000A2
:0918460009072900010103A000BB
:09184F000904000002030000007E
:09185800092110010001220E011A
:0718610007058103400001AF
:071868000705010340000128
:01186F000078
:0E187000850105010905A10105050937A10241
:0E187E00150025010509090309020901090CDD
:0E188C000909090A090E090F090609050904D0
:0E189A00090B0919091A091E091F750195107D
:0E18A8008102C005050939A1020509090809D8
:0E18B60007150026FF00750895028102C00587
:0E18C400010901A10009300931093209351569
:0E18D20081257F750895048102C0C08502053E
:0E18E000010906A101050719E029E7150025F9
:0E18EE0001750195088102950175088101952B
:0E18FC00057501050819012905910295017570
:0E190A0003910195067508150025FF050719C4
:0E1918000029FF8100C0850305010902A1011D
:0E1926000901A10005090903090209010904CC
:0E193400150025019504750181029501751CB1
:0E194200810105011601FF26FF00093075081E
:0E195000950181069501750781010931750821
:0E195E0095018106950175078101093875080C
:0E196C0095018106950175078101950675109C
:04197A008101C0C067
:04197E000403090451
:0619820006036D00630086
:0E19880024034D00610070006C00650020001B
:0E1996004200750073002000410064006100F3
:0819A400700074006500720080
:0219AC00000039
:0600CD00751E00751F0006
:0A09BF00AB1490F800058690F805CF
:0E09C900E044FDFCA3A3E044FE5C2323FCA35A
:0E09D700A3E044FD5204A3A3E044FE5C2323EE
:0E09E500FCA3A3E044FD5204A3A3E044FE5C87
:0E09F3002323FCA3A3E044FD5204A3A3E0448D
:0E0A0100FE5C1586F0A30586A3A3DBBC15865C
:020A0F002222A1
:0D0A110000000090E6617402F0000000900B
:0E0A1E00E6D07401F000000090E6D174EBF019
:0E0A2C0000000075C80075CCEF75CDD875C8F8
:0D0A3A000475BB0600000090E6C2740FF0CA
:0E0A4700E5BB20E70D90E661E0FA20E105E551
:040A5500C830E7EED0
:0E0A590053C8FBE5BB20E70990E6F574FFF0FB
:030A67000000008C
:0E0A6A0090E6D0E0FA8A037A0090E6D1E0FC34
:0E0A78007D004202ED420374E9C39AFA740154
:0E0A86009BFBC423CAC423541F6ACA541FCA50
:070A94006ACA30E40244E0ED
:0C0A9B00FB8A1400000090E6047406F0D2
:0C0AA70000000090E604E4F0000000E510
:0A0AB30014601D7481251440179093
:0E0ABD00F801E0FA530203BA020C90F803E0CD
:080ACB00FA540370030209BF95
:040AD3007514002274
:020AD70078198C
:040AD90000D8FD2222
:0A0ADD0079157BFE7CFDE514FD9009
:0E0AE700E6C2C2AFEBF0120AD75CF0120AD7DB
:0D0AF500EBF0120AD75CF0120AD7EBF012FA
:0A0B02000AD75CF0120AD7EBF012DC
:0A0B0C000AD75CF0120AD7EBF012D2
:0A0B16000AD74CF0120AD7ECF012D7
:020B20000AD7F2
:030B2200E77F0466
:0E0B250033FA740F92E092E1F0120AD7EBF06F
:0E0B3300120AD7EA33FA740F92E092E1F01240
:0E0B41000AD7ECF0120AD7EADFDA09DDD44B4E
:0C0B4F00F0120AD7ECF0120AD75BF0128B
:0A0B5B000AD7ECF0120AD75BF01283
:0B0B65000AD7ECF0120AD7D2AF222210
:040B70007A007B008C
:0C0B7400C3EB9514500C8B827583F8E0E5
:060B8000FC62020B80EE96
:050B8600E4BA000104C7
:030B8B0024FF2222
:070B8E00E582FA7002AA1FC4
:080B9500EA30E004751E0122A4
:080B9D00EA30E104751E02229A
:080BA500EA30E204751E032290
:040BAD00751E00228F
:0C0BB100751F0090F804E0FA30E00375B6
:020BBD001F0116
:0B0BBF0090F804E0FA30E603431F0248
:0B0BCA0090F805E0FA30E103431F043F
:060BD500851F82020B8E59
:0E0BDB0090F800E0FABA030A90F804E0FABAC3
:040BE9000102800184
:010BED0022E5
:090BEE0090E6A2E0FA30E10122D8
:080BF70090E7C07401F07A00E0
:030BFF00BA080031
:0E0C02005029EA04FB24C0FCE434E7FD74032F
:0E0C10006AFE7F0074082EFEE43FFF8E8274A1
:0E0C1E00F82FF583E0FE8C828D83F08B028030
:010C2C00D2F5
:0E0C2D0090E7C1E0F490E7C1F090E7C2E0F478
:0D0C3B0090E7C2F090E7C5E0FA63028090F8
:0D0C4800E7C5EAF090E7C6E0FA630280908D
:0D0C5500E7C6EAF090E7C7E0FA630280907E
:0D0C6200E7C7EAF090E7C8E0FA630280906F
:0B0C6F00E7C8EAF090E68F7409F0225D
:0E0C7A0090F800E0FABA030A90F804E0FABA23
:040C880040028001A5
:010C8C002245
:0E0C8D0090E6A2E0FA20E13C90E7C07402F08D
:020C9B007A00DD
:030C9D00BA080092
:0E0CA0005029EA04FB24C0FCE434E7FD740391
:0E0CAE006AFE7F0074082EFEE43FFF8E827403
:0E0CBC00F82FF583E0FE8C828D83F08B028092
:010CCA00D257
:060CCB0090E68F7409F0B1
:010CD1002200
:0E0CD20090F800E0FABA060A90F805E0FABAC7
:040CE000020280018B
:010CE40022ED
:090CE50090E6A2E0FA30E10122E0
:080CEE0090E7C07403F07A00E6
:030CF600BA14002D
:0E0CF9005029EA04FB24C0FCE434E7FD740338
:0E0D07006AFE7F0074082EFEE43FFF8E8274A9
:0E0D1500F82FF583E0FE8C828D83F08B028038
:010D2300D2FD
:0E0D240090E7C1E0F490E7C1F090E7C9E0FA73
:0E0D320090E7CAE0FB8B04E4FBFDEA4203ED10
:0D0D40004204E4C39BFB74029CFC8B0290F8
:0E0D4D00E7C9EAF08C0390E7CAEBF090E68F5E
:040D5B007415F022F9
:0A0D5F00AA82AB837515017516001A
:0A0D69007517207518098A047D0033
:090D73008C068E198B028A1A7598
:0A0D7C001B00751C00630228EA3317
:0C0D860095E0FBEA6204EB62058C1D7531
:060D92001409120ADD1233
:0C0D98000A1174F72514504190F800E097
:0E0DA400FAE4CA25E0CA33CA25E0CA33FB745C
:0C0DB200052AFAE43BFBAC147D00ECB514
:0E0DBE000221EDB5031D120B70501890F801C4
:0E0DCC00E0FABA201090F802E0700A90F803E6
:070DDA00E0FABA0802D3227F
:050DE100751E00C32295
:070DE600E51E24FC50012270
:050DED00E51E251E2596
:050DF2001E900DF773D7
:070DF700020E03020E43028D
:050DFE000E58020E6D0D
:070E0300751500751600755E
:060E0A00172075180175A8
:060E100019217514051202
:080E16000ADD120A1174CC255B
:040E1E001440012259
:0E0E220090F800E0FABA1C5890F801E0FABA15
:0E0E3000205090F802E0704A90F803E0FABA01
:050E3E000542020BB1AA
:0C0E4300900001120D5F5037AA1F74FED2
:090E4F005AF582120B8E020BDB36
:0C0E5800900040120D5F5022AA1F74FC95
:090E64005AF582120B8E020C7A81
:0C0E6D00900200120D5F500DAA1F74F8D7
:090E79005AF582120B8E020CD214
:010E8200224D
:0600A000E478FFF6D8FD34
:08007E007900E94400601B7ADF
:0500860000900EB178AE
:03008B000075A05D
:0A008E00E0E493F2A308B8000205B5
:08009800A0D9F4DAF275A0FF13
:0400A60075A0E078E9
:0700AA0000E8440060077943
:0600B10000E4F309D8FC95
:0800B7007800E84400600C79B8
:0B00BF000090E000E4F0A3D8FCD9FAA8
:0300710075813660
:0A007400120E83E5826003020036DD
:040E83007582002252
:00000001FF
